:0A0C7300000102020303040405055A
:10045C00E4F52CF52BF52AF529C203C200C202C221
:10046C00011206BC7E097F008E418F4275490975C9
:10047C004A12753F0975401C75470975484A754BFA
:10048C0009754C78EE54C0700302055D752D00752E
:10049C002E808E2F8F30C374B29FFF74099ECF2491
:1004AC0002CF3400FEE48F288E27F526F525F5249F
:1004BC00F523F522F521AF28AE27AD26AC25AB24CC
:1004CC00AA23A922A821C3120B975033E530252467
:1004DC00F582E52F3523F583E0FFE52E2524F58203
:1004EC00E52D3523F583EFF0E5242401F524E435DF
:1004FC0023F523E43522F522E43521F52180B78557
:10050C002D41852E4274002480FF740934FFFEC3F4
:10051C00E54A9FF54AE5499EF549C3E5449FF544F4
:10052C00E5439EF543C3E5469FF546E5459EF545F7
:10053C00C3E5409FF540E53F9EF53FC3E5489FF579
:10054C0048E5479EF547C3E54C9FF54CE54B9EF5BA
:10055C004BD2E843D82090E668E04409F090E65C82
:10056C00E0443DF0D2AF90E680E020E105D20412E9
:10057C0007D090E680E054F7F0538EF8C2031202D5
:10058C00B7300105120080C2013003F2120C8D50FD
:10059C00EDC203120B7220001690E682E030E704E5
:1005AC00E020E1EF90E682E030E604E020E0E412A7
:0705BC000AF6120C8F80C744
:0B0C680090E50DE030E402C322D3222F
:1000800090E6B9E0700302013F1470030201BC2442
:10009000FE700302023F24FB700302013914700357
:1000A00002013314700302012714700302012D248E
:1000B0000560030202A3120C9140030202AF90E616
:1000C000BBE024FE602714603824FD601114602713
:1000D00024067050E54190E6B3F0E542803C120CF6
:1000E00068503EE54990E6B3F0E54A802DE543903F
:1000F000E6B3F0E5448023E54590E6B3F0E54680BD
:100100001990E6BAE0FF120B22AA06A9077B01EAC2
:10011000494B600DEE90E6B3F0EF90E6B4F00202CA
:10012000AF02029E02029E120C560202AF120C8512
:100130000202AF120C7D0202AF120C440202AF1297
:100140000C9340030202AF90E6B8E0247F601514E0
:10015000601924027063A200E43325E0FFA202E4E8
:10016000334F8041E490E740F0803F90E6BCE0549C
:100170007EFF7E00E0D394807C0040047D018002FD
:100180007D00EC4EFEED4F2473F582740C3EF5833A
:10019000E493FF3395E0FEEF24A1FFEE34E68F8277
:1001A000F583E0540190E740F0E4A3F090E68AF094
:1001B00090E68B7402F00202AF02029E120C954090
:1001C000030202AF90E6B8E024FE6016240260034A
:1001D0000202AF90E6BAE0B40105C2000202AF022B
:1001E000029E90E6BAE0705590E6BCE0547EFF7E39
:1001F00000E0D394807C0040047D0180027D00EC0F
:100200004EFEED4F2473F582740C3EF583E493FFAC
:100210003395E0FEEF24A1FFEE34E68F82F583E014
:1002200054FEF090E6BCE05480131313541FFFE01B
:10023000540F2F90E683F0E04420F08072805F122C
:100240000C97506B90E6B8E024FE60192402704EC3
:1002500090E6BAE0B40104D200805490E6BAE064BB
:1002600002604C803990E6BCE0547EFF7E00E0D313
:1002700094807C0040047D0180027D00EC4EFEED08
:100280004F2473F582740C3EF583E493FF3395E0BD
:10029000FEEF24A1FFEE34E68F82F583800D90E619
:1002A000A08008120C99500790E6A0E04401F0905D
:0602B000E6A0E04480F02E
:0102B6002225
:030033000208FBC5
:0408FB0053D8EF32AD
:100C2F00080F010204081020408002170000040B77
:040C3F0000000000B1
:070BBB00120B4D7F8A7E0240
:100BC200D3EF9400EE94004007EF1F70F31E80F005
:010BD2002200
:1006BC0090E600E054E74410F090E601E04440F08E
:1006CC0090E61074A0F090E611F000000090E61295
:1006DC0074A2F000000090E61374A0F000000090EB
:1006EC00E61474E2F000000090E61574E0F00000EF
:1006FC000090E6917480F000000090E695F0000008
:10070C000090E691F000000090E695F0E4FFFEEF1B
:10071C002402FD74002FF58274F83EF583EDF00F82
:10072C00BF00010EE4B507E7EEB402E30000009051
:10073C00E6987402F0000000E490E699F0FEFFEFFA
:10074C002402FD74002FF58274F83EF583EDF00F52
:10075C00BF00010EE4B507E7EEB402E30000009021
:10076C00E6987402F0000000E490E699F0F519F5B3
:0D077C001A43AF0175B3DFD296D293C2923B
:01078900224D
:100B4D007E08C296C294740E2EF8E65FFDEE14FC7C
:100B5D00EDA804088002C313D8FC24FF9297D29409
:040B6D00DEE2D2965C
:010B71002261
:0E05C3008B378A3889398F3D8E3C8D3B8C3AC0
:1005D1007F08E4FBFAF9753E02C296C294740E2FAD
:1005E100F8E65402FEEF14FDEEA805088002C313DD
:1005F100D8FC24FF9297D294DFE1AF0EAE0DAD0C83
:10060100AC0B7810120BA8A9077F08C294740E2FA7
:10061100F8E659FEEF14FDEEA805088002C313D8D1
:10062100FC24FF9297D294DFE2AF0EAE0DAD0CAC7D
:100631000B7808120BA8A9077F08C294740E2FF833
:10064100E659FEEF14FDEEA805088002C313D8FC9D
:1006510024FF9297D294DFE2A90E7F08C294740E10
:100661002FF8E659FEEF14FDEEA805088002C3132A
:10067100D8FC24FF9297D294DFE2E4FAFB7F08C210
:100681009474002BF58274123AF583E0FE740E2FF8
:10069100F8E6FDEE5DFEEF14FDEEA805088002C34D
:1006A10013D8FC24FF9297D294DFD40BBB00010A2C
:0A06B100E4B503C9EAB401C5D2960E
:0106BB00221C
:0E0AC000F50CF50BFFFEFD7B017A127900FCB0
:100ACE008F368E358D348C337F06120BBBAF36AE20
:100ADE0035AD34AC331205C37F05120A83EF30E017
:080AEE0006C294D29480F122AB
:100A83007E08E4FDC296C294740E2EF8E65FFCEE77
:100A930014FBECA803088002C313D8FC24FF92972D
:100AA300D294DEE27E08C294C294ED25E0FFA295C3
:0C0AB300E4334FFDD294DEEED296AF0586
:010ABF002214
:1002B700E5AA20E53BE4F531F5327F05120A8374A0
:1002C700002532F58274F83531F583EFF00532E514
:1002D7003270020531C3E531940240DE0000009020
:1002E700E6987402F0000000E490E699F000000040
:1002F700E5AA30E2030203E47AF4790074F4F59A8C
:100307007400F59B7412F59D7400F59E90E694E0D9
:10031700FE90E695E07C002400F51AEC3EF519E521
:100327001A7004E519640260030203E4F531F5323B
:10033700C3E532951AE5319519501290E67BE090A6
:10034700E67CF00532E5327002053180E37B017A05
:10035700127900AF0EAE0DAD0CAC0B120ACEE4F560
:1003670031F532E519C313FEE51A13FFC3E5329FD2
:10037700E5319E502CE5322FFFE5313EFE74002F0C
:10038700F58274123EF583E0FF74002532F582741E
:10039700123531F583EFF00532E532700205318011
:1003A700C2E4250EF50EE50D3401F50DE4350CF527
:1003B7000CE4350BF50BAF0EAE0DAD0C120AC7E40E
:1003C700250EF50EE50D3401F50DE4350CF50CE4BD
:1003D700350BF50B00000090E6957480F0E5AA2038
:1003E700E07290F000E0B41007E4F5B3C293D29244
:1003F70090F000E064117034F531F5327400253265
:10040700F58274123531F583E532F00532E5327045
:10041700020531B400E6E531B402E1E4F50EF50D6D
:10042700120AC0E4F50E750D01120AC090F000E043
:10043700B412187F647E19120BC27F06120B4D7F10
:10044700647E19120BC27FC7120BBB90E6917480B2
:04045700F0000000B1
:01045B00227E
:020C8D00D32270
:020C8F00D3226E
:020C9100D3226C
:080C7D0090E6BAE0F51BD3225A
:100C440090E740E51BF0E490E68AF090E68B04F030
:020C5400D322A9
:080C850090E6BAE0F508D32265
:100C560090E740E508F0E490E68AF090E68B04F031
:020C6600D32297
:020C9300D3226A
:020C9500D32268
:020C9700D32266
:020C9900D32264
:100BD300C0E0C083C082D2015391EF90E65D7401FF
:080BE300F0D082D083D0E03293
:100C0300C0E0C083C0825391EF90E65D7404F0D0DE
:060C130082D083D0E03224
:100C1900C0E0C083C0825391EF90E65D7402F0D0CA
:060C290082D083D0E0320E
:1008B800C0E0C083C08290E680E030E714853F4303
:1008C800854044854745854846750902750A008074
:1008D80012854743854844853F458540467509004C
:1008E800750A405391EF90E65D7410F0D082D08382
:0308F800D0E0321B
:100BEB00C0E0C083C082D2035391EF90E65D7408DE
:080BFB00F0D082D083D0E0327B
:100A4000C0E0C083C08290E680E030E714853F4379
:100A5000854044854745854846750902750A0080EA
:100A600012854743854844853F45854046750900C2
:100A7000750A405391EF90E65D7420F0D082D083E8
:030A8000D0E03291
:0107FF0032C7
:0108FF0032C6
:010C9B003226
:010C9C003225
:010C9D003224
:010C9E003223
:010C9F003222
:010CA0003221
:010CA1003220
:010CA200321F
:010CA300321E
:010CA400321D
:010CA500321C
:010CA600321B
:010CA700321A
:010CA8003219
:010CA9003218
:010CAA003217
:010CAB003216
:010CAC003215
:010CAD003214
:010CAE003213
:010CAF003212
:010CB0003211
:010CB1003210
:010CB200320F
:010CB300320E
:010CB400320D
:010CB500320C
:010CB600320B
:010CB700320A
:010CB8003209
:010CB9003208
:010CBA003207
:010CBB003206
:010CBC003205
:100900001201000200000040512C01100000010201
:1009100000010A06000200000040010009022E004A
:1009200001010080320904000004FF0000000705F7
:100930000202000200070504020002000705860209
:100940000002000705880200020009022E000101D2
:100950000080320904000004FF00000007050202C5
:100960004000000705040240000007058602400021
:1009700000070588024000000403090420034C001E
:1009800061006D00620064006100410063006F005F
:100990007500730074006900630073001603410062
:1009A0005200430048004F002D0042004F004F000E
:0409B00054000000EF
:100AF60090E682E030E004E020E60B90E682E0300B
:100B0600E119E030E71590E680E04401F07F147EBD
:0C0B16000012078A90E680E054FEF022F6
:1007D00030040990E680E0440AF0800790E680E06B
:1007E0004408F07FDC7E0512078A90E65D74FFF016
:0F07F00090E65FF05391EF90E680E054F7F0222F
:020B2200A90721
:100B2400AE4BAF4C8F828E83A3E064037017AD018C
:100B340019ED7001228F828E83E07C002FFDEC3E44
:080B4400FEAF0580DFE4FEFFB7
:010B4C002286
:100B720090E682E044C0F090E681F04387010000F5
:040B8200000000224D
:10078A008E318F3290E600E054187012E53224015F
:10079A00FFE43531C313F531EF13F532801590E6D6
:1007AA0000E05418FFBF100BE53225E0F532E531C1
:1007BA0033F531E5321532AE31700215314E60052E
:0607CA00120B8680EE22F6
:100B86007400F58690FDA57C05A3E582458370F982
:010B9600223C
:03004300020800B0
:03005300020800A0
:10080000020BD300020C1900020C0300020BEB00D8
:100810000208B800020A40000207FF000208FF00B9
:10082000020C9B00020C9C00020C9D00020C9E001E
:10083000020C9F00020CA000020CA100020CA200FE
:10084000020CA3000208FF00020CA400020CA50089
:10085000020CA600020CA700020CA800020CA900C2
:10086000020CAA000208FF000208FF000208FF00B5
:10087000020CAB00020CAC00020CAD00020CAE008E
:10088000020CAF00020CB000020CB100020CB2006E
:10089000020CB300020CB400020CB500020CB6004E
:1008A000020CB700020CB800020CB900020CBA002E
:0808B000020CBB00020CBC00AD
:030000000209B43E
:0C09B400787FE4F6D8FD75814C0209FB49
:100B9700EB9FF5F0EA9E42F0E99D42F0E89C45F0B4
:010BA700222B
:100BA800E8600FECC313FCED13FDEE13FEEF13FF2B
:030BB800D8F1224F
:1009C00002045CE493A3F8E493A34003F68001F2ED
:1009D00008DFF48029E493A3F85407240CC8C33338
:1009E000C4540F4420C8834004F456800146F6DF07
:1009F000E4800B0102040810204080900C2FE47E5C
:100A0000019360BCA3FF543F30E509541FFEE493FB
:100A1000A360010ECF54C025E060A840B8E493A3C2
:100A2000FAE493A3F8E493A3C8C582C8CAC583CAED
:100A3000F0A3C8C582C8CAC583CADFE9DEE780BEA5
:010C430000B0
:00000001FF
